{
  "_format": "hh-sol-artifact-1",
  "contractName": "ProfileImageNfts",
  "sourceName": "../smart_contract/contract/MintProfileImage.sol",
  "abi": [
    {
      "inputs": [],
      "stateMutability": "nonpayable",
      "type": "constructor"
    },
    {
      "anonymous": false,
      "inputs": [
        {
          "indexed": true,
          "internalType": "address",
          "name": "owner",
          "type": "address"
        },
        {
          "indexed": true,
          "internalType": "address",
          "name": "approved",
          "type": "address"
        },
        {
          "indexed": true,
          "internalType": "uint256",
          "name": "tokenId",
          "type": "uint256"
        }
      ],
      "name": "Approval",
      "type": "event"
    },
    {
      "anonymous": false,
      "inputs": [
        {
          "indexed": true,
          "internalType": "address",
          "name": "owner",
          "type": "address"
        },
        {
          "indexed": true,
          "internalType": "address",
          "name": "operator",
          "type": "address"
        },
        {
          "indexed": false,
          "internalType": "bool",
          "name": "approved",
          "type": "bool"
        }
      ],
      "name": "ApprovalForAll",
      "type": "event"
    },
    {
      "anonymous": false,
      "inputs": [
        {
          "indexed": true,
          "internalType": "address",
          "name": "previousOwner",
          "type": "address"
        },
        {
          "indexed": true,
          "internalType": "address",
          "name": "newOwner",
          "type": "address"
        }
      ],
      "name": "OwnershipTransferred",
      "type": "event"
    },
    {
      "anonymous": false,
      "inputs": [
        {
          "indexed": true,
          "internalType": "address",
          "name": "from",
          "type": "address"
        },
        {
          "indexed": true,
          "internalType": "address",
          "name": "to",
          "type": "address"
        },
        {
          "indexed": true,
          "internalType": "uint256",
          "name": "tokenId",
          "type": "uint256"
        }
      ],
      "name": "Transfer",
      "type": "event"
    },
    {
      "inputs": [
        {
          "internalType": "address",
          "name": "to",
          "type": "address"
        },
        {
          "internalType": "uint256",
          "name": "tokenId",
          "type": "uint256"
        }
      ],
      "name": "approve",
      "outputs": [],
      "stateMutability": "nonpayable",
      "type": "function"
    },
    {
      "inputs": [
        {
          "internalType": "address",
          "name": "owner",
          "type": "address"
        }
      ],
      "name": "balanceOf",
      "outputs": [
        {
          "internalType": "uint256",
          "name": "",
          "type": "uint256"
        }
      ],
      "stateMutability": "view",
      "type": "function"
    },
    {
      "inputs": [],
      "name": "getAlltoken",
      "outputs": [
        {
          "components": [
            {
              "internalType": "uint256",
              "name": "id",
              "type": "uint256"
            },
            {
              "internalType": "string",
              "name": "uri",
              "type": "string"
            },
            {
              "internalType": "string",
              "name": "space",
              "type": "string"
            }
          ],
          "internalType": "struct ProfileImageNfts.RenderToken[]",
          "name": "",
          "type": "tuple[]"
        }
      ],
      "stateMutability": "view",
      "type": "function"
    },
    {
      "inputs": [
        {
          "internalType": "uint256",
          "name": "tokenId",
          "type": "uint256"
        }
      ],
      "name": "getApproved",
      "outputs": [
        {
          "internalType": "address",
          "name": "",
          "type": "address"
        }
      ],
      "stateMutability": "view",
      "type": "function"
    },
    {
      "inputs": [
        {
          "internalType": "address",
          "name": "owner",
          "type": "address"
        },
        {
          "internalType": "address",
          "name": "operator",
          "type": "address"
        }
      ],
      "name": "isApprovedForAll",
      "outputs": [
        {
          "internalType": "bool",
          "name": "",
          "type": "bool"
        }
      ],
      "stateMutability": "view",
      "type": "function"
    },
    {
      "inputs": [
        {
          "internalType": "address",
          "name": "recipents",
          "type": "address"
        },
        {
          "internalType": "string",
          "name": "_uri",
          "type": "string"
        }
      ],
      "name": "mint",
      "outputs": [
        {
          "internalType": "uint256",
          "name": "",
          "type": "uint256"
        }
      ],
      "stateMutability": "nonpayable",
      "type": "function"
    },
    {
      "inputs": [],
      "name": "name",
      "outputs": [
        {
          "internalType": "string",
          "name": "",
          "type": "string"
        }
      ],
      "stateMutability": "view",
      "type": "function"
    },
    {
      "inputs": [],
      "name": "owner",
      "outputs": [
        {
          "internalType": "address",
          "name": "",
          "type": "address"
        }
      ],
      "stateMutability": "view",
      "type": "function"
    },
    {
      "inputs": [
        {
          "internalType": "uint256",
          "name": "tokenId",
          "type": "uint256"
        }
      ],
      "name": "ownerOf",
      "outputs": [
        {
          "internalType": "address",
          "name": "",
          "type": "address"
        }
      ],
      "stateMutability": "view",
      "type": "function"
    },
    {
      "inputs": [],
      "name": "renounceOwnership",
      "outputs": [],
      "stateMutability": "nonpayable",
      "type": "function"
    },
    {
      "inputs": [
        {
          "internalType": "address",
          "name": "from",
          "type": "address"
        },
        {
          "internalType": "address",
          "name": "to",
          "type": "address"
        },
        {
          "internalType": "uint256",
          "name": "tokenId",
          "type": "uint256"
        }
      ],
      "name": "safeTransferFrom",
      "outputs": [],
      "stateMutability": "nonpayable",
      "type": "function"
    },
    {
      "inputs": [
        {
          "internalType": "address",
          "name": "from",
          "type": "address"
        },
        {
          "internalType": "address",
          "name": "to",
          "type": "address"
        },
        {
          "internalType": "uint256",
          "name": "tokenId",
          "type": "uint256"
        },
        {
          "internalType": "bytes",
          "name": "data",
          "type": "bytes"
        }
      ],
      "name": "safeTransferFrom",
      "outputs": [],
      "stateMutability": "nonpayable",
      "type": "function"
    },
    {
      "inputs": [
        {
          "internalType": "address",
          "name": "operator",
          "type": "address"
        },
        {
          "internalType": "bool",
          "name": "approved",
          "type": "bool"
        }
      ],
      "name": "setApprovalForAll",
      "outputs": [],
      "stateMutability": "nonpayable",
      "type": "function"
    },
    {
      "inputs": [
        {
          "internalType": "bytes4",
          "name": "interfaceId",
          "type": "bytes4"
        }
      ],
      "name": "supportsInterface",
      "outputs": [
        {
          "internalType": "bool",
          "name": "",
          "type": "bool"
        }
      ],
      "stateMutability": "view",
      "type": "function"
    },
    {
      "inputs": [],
      "name": "symbol",
      "outputs": [
        {
          "internalType": "string",
          "name": "",
          "type": "string"
        }
      ],
      "stateMutability": "view",
      "type": "function"
    },
    {
      "inputs": [
        {
          "internalType": "uint256",
          "name": "tokenId",
          "type": "uint256"
        }
      ],
      "name": "tokenURI",
      "outputs": [
        {
          "internalType": "string",
          "name": "",
          "type": "string"
        }
      ],
      "stateMutability": "view",
      "type": "function"
    },
    {
      "inputs": [
        {
          "internalType": "address",
          "name": "from",
          "type": "address"
        },
        {
          "internalType": "address",
          "name": "to",
          "type": "address"
        },
        {
          "internalType": "uint256",
          "name": "tokenId",
          "type": "uint256"
        }
      ],
      "name": "transferFrom",
      "outputs": [],
      "stateMutability": "nonpayable",
      "type": "function"
    },
    {
      "inputs": [
        {
          "internalType": "address",
          "name": "newOwner",
          "type": "address"
        }
      ],
      "name": "transferOwnership",
      "outputs": [],
      "stateMutability": "nonpayable",
      "type": "function"
    }
  ],
  "bytecode": "0x60806040523480156200001157600080fd5b506040518060400160405280601081526020017f50726f66696c65496d6167654e667473000000000000000000000000000000008152506040518060400160405280600381526020017f50494e0000000000000000000000000000000000000000000000000000000000815250816000908051906020019062000096929190620001a6565b508060019080519060200190620000af929190620001a6565b505050620000d2620000c6620000d860201b60201c565b620000e060201b60201c565b620002bb565b600033905090565b6000600660009054906101000a900473ffffffffffffffffffffffffffffffffffffffff16905081600660006101000a81548173ffffffffffffffffffffffffffffffffffffffff021916908373ffffffffffffffffffffffffffffffffffffffff1602179055508173ffffffffffffffffffffffffffffffffffffffff168173ffffffffffffffffffffffffffffffffffffffff167f8be0079c531659141344cd1fd0a4f28419497f9722a3daafe3b4186f6b6457e060405160405180910390a35050565b828054620001b49062000285565b90600052602060002090601f016020900481019282620001d8576000855562000224565b82601f10620001f357805160ff191683800117855562000224565b8280016001018555821562000224579182015b828111156200022357825182559160200191906001019062000206565b5b50905062000233919062000237565b5090565b5b808211156200025257600081600090555060010162000238565b5090565b7f4e487b7100000000000000000000000000000000000000000000000000000000600052602260045260246000fd5b600060028204905060018216806200029e57607f821691505b60208210811415620002b557620002b462000256565b5b50919050565b612b0680620002cb6000396000f3fe608060405234801561001057600080fd5b50600436106101165760003560e01c8063715018a6116100a2578063b88d4fde11610071578063b88d4fde146102cd578063c87b56dd146102e9578063d0def52114610319578063e985e9c514610349578063f2fde38b1461037957610116565b8063715018a61461026b5780638da5cb5b1461027557806395d89b4114610293578063a22cb465146102b157610116565b806323b872dd116100e957806323b872dd146101b557806328904431146101d157806342842e0e146101ef5780636352211e1461020b57806370a082311461023b57610116565b806301ffc9a71461011b57806306fdde031461014b578063081812fc14610169578063095ea7b314610199575b600080fd5b610135600480360381019061013091906119c7565b610395565b6040516101429190611a0f565b60405180910390f35b610153610477565b6040516101609190611ac3565b60405180910390f35b610183600480360381019061017e9190611b1b565b610509565b6040516101909190611b89565b60405180910390f35b6101b360048036038101906101ae9190611bd0565b61054f565b005b6101cf60048036038101906101ca9190611c10565b610667565b005b6101d96106c7565b6040516101e69190611dd5565b60405180910390f35b61020960048036038101906102049190611c10565b6107e0565b005b61022560048036038101906102209190611b1b565b610800565b6040516102329190611b89565b60405180910390f35b61025560048036038101906102509190611df7565b6108b2565b6040516102629190611e33565b60405180910390f35b61027361096a565b005b61027d61097e565b60405161028a9190611b89565b60405180910390f35b61029b6109a8565b6040516102a89190611ac3565b60405180910390f35b6102cb60048036038101906102c69190611e7a565b610a3a565b005b6102e760048036038101906102e29190611fef565b610a50565b005b61030360048036038101906102fe9190611b1b565b610ab2565b6040516103109190611ac3565b60405180910390f35b610333600480360381019061032e9190612113565b610b6f565b6040516103409190611e33565b60405180910390f35b610363600480360381019061035e919061216f565b610ba6565b6040516103709190611a0f565b60405180910390f35b610393600480360381019061038e9190611df7565b610c3a565b005b60007f80ac58cd000000000000000000000000000000000000000000000000000000007bffffffffffffffffffffffffffffffffffffffffffffffffffffffff1916827bffffffffffffffffffffffffffffffffffffffffffffffffffffffff1916148061046057507f5b5e139f000000000000000000000000000000000000000000000000000000007bffffffffffffffffffffffffffffffffffffffffffffffffffffffff1916827bffffffffffffffffffffffffffffffffffffffffffffffffffffffff1916145b80610470575061046f82610cbe565b5b9050919050565b606060008054610486906121de565b80601f01602080910402602001604051908101604052809291908181526020018280546104b2906121de565b80156104ff5780601f106104d4576101008083540402835291602001916104ff565b820191906000526020600020905b8154815290600101906020018083116104e257829003601f168201915b5050505050905090565b600061051482610d28565b6004600083815260200190815260200160002060009054906101000a900473ffffffffffffffffffffffffffffffffffffffff169050919050565b600061055a82610800565b90508073ffffffffffffffffffffffffffffffffffffffff168373ffffffffffffffffffffffffffffffffffffffff1614156105cb576040517f08c379a00000000000000000000000000000000000000000000000000000000081526004016105c290612282565b60405180910390fd5b8073ffffffffffffffffffffffffffffffffffffffff166105ea610d73565b73ffffffffffffffffffffffffffffffffffffffff161480610619575061061881610613610d73565b610ba6565b5b610658576040517f08c379a000000000000000000000000000000000000000000000000000000000815260040161064f90612314565b60405180910390fd5b6106628383610d7b565b505050565b610678610672610d73565b82610e34565b6106b7576040517f08c379a00000000000000000000000000000000000000000000000000000000081526004016106ae906123a6565b60405180910390fd5b6106c2838383610ec9565b505050565b606060006106d56007611130565b905060008167ffffffffffffffff8111156106f3576106f2611ec4565b5b60405190808252806020026020018201604052801561072c57816020015b610719611897565b8152602001906001900390816107115790505b50905060005b8281116107d7576107428161113e565b156107c457600061075282610ab2565b905060405180606001604052808381526020018281526020016040518060400160405280600181526020017f20000000000000000000000000000000000000000000000000000000000000008152508152508383815181106107b7576107b66123c6565b5b6020026020010181905250505b80806107cf90612424565b915050610732565b50809250505090565b6107fb83838360405180602001604052806000815250610a50565b505050565b6000806002600084815260200190815260200160002060009054906101000a900473ffffffffffffffffffffffffffffffffffffffff169050600073ffffffffffffffffffffffffffffffffffffffff168173ffffffffffffffffffffffffffffffffffffffff1614156108a9576040517f08c379a00000000000000000000000000000000000000000000000000000000081526004016108a0906124b9565b60405180910390fd5b80915050919050565b60008073ffffffffffffffffffffffffffffffffffffffff168273ffffffffffffffffffffffffffffffffffffffff161415610923576040517f08c379a000000000000000000000000000000000000000000000000000000000815260040161091a9061254b565b60405180910390fd5b600360008373ffffffffffffffffffffffffffffffffffffffff1673ffffffffffffffffffffffffffffffffffffffff168152602001908152602001600020549050919050565b6109726111aa565b61097c6000611228565b565b6000600660009054906101000a900473ffffffffffffffffffffffffffffffffffffffff16905090565b6060600180546109b7906121de565b80601f01602080910402602001604051908101604052809291908181526020018280546109e3906121de565b8015610a305780601f10610a0557610100808354040283529160200191610a30565b820191906000526020600020905b815481529060010190602001808311610a1357829003601f168201915b5050505050905090565b610a4c610a45610d73565b83836112ee565b5050565b610a61610a5b610d73565b83610e34565b610aa0576040517f08c379a0000000000000000000000000000000000000000000000000000000008152600401610a97906123a6565b60405180910390fd5b610aac8484848461145b565b50505050565b6060610abd8261113e565b610ac657600080fd5b6000600860008481526020019081526020016000208054610ae6906121de565b80601f0160208091040260200160405190810160405280929190818152602001828054610b12906121de565b8015610b5f5780601f10610b3457610100808354040283529160200191610b5f565b820191906000526020600020905b815481529060010190602001808311610b4257829003601f168201915b5050505050905080915050919050565b600080610b7c6007611130565b9050610b8884826114b7565b610b928184611691565b610b9c60076116bd565b8091505092915050565b6000600560008473ffffffffffffffffffffffffffffffffffffffff1673ffffffffffffffffffffffffffffffffffffffff16815260200190815260200160002060008373ffffffffffffffffffffffffffffffffffffffff1673ffffffffffffffffffffffffffffffffffffffff16815260200190815260200160002060009054906101000a900460ff16905092915050565b610c426111aa565b600073ffffffffffffffffffffffffffffffffffffffff168173ffffffffffffffffffffffffffffffffffffffff161415610cb2576040517f08c379a0000000000000000000000000000000000000000000000000000000008152600401610ca9906125dd565b60405180910390fd5b610cbb81611228565b50565b60007f01ffc9a7000000000000000000000000000000000000000000000000000000007bffffffffffffffffffffffffffffffffffffffffffffffffffffffff1916827bffffffffffffffffffffffffffffffffffffffffffffffffffffffff1916149050919050565b610d318161113e565b610d70576040517f08c379a0000000000000000000000000000000000000000000000000000000008152600401610d67906124b9565b60405180910390fd5b50565b600033905090565b816004600083815260200190815260200160002060006101000a81548173ffffffffffffffffffffffffffffffffffffffff021916908373ffffffffffffffffffffffffffffffffffffffff160217905550808273ffffffffffffffffffffffffffffffffffffffff16610dee83610800565b73ffffffffffffffffffffffffffffffffffffffff167f8c5be1e5ebec7d5bd14f71427d1e84f3dd0314c0f7b2291e5b200ac8c7c3b92560405160405180910390a45050565b600080610e4083610800565b90508073ffffffffffffffffffffffffffffffffffffffff168473ffffffffffffffffffffffffffffffffffffffff161480610e825750610e818185610ba6565b5b80610ec057508373ffffffffffffffffffffffffffffffffffffffff16610ea884610509565b73ffffffffffffffffffffffffffffffffffffffff16145b91505092915050565b8273ffffffffffffffffffffffffffffffffffffffff16610ee982610800565b73ffffffffffffffffffffffffffffffffffffffff1614610f3f576040517f08c379a0000000000000000000000000000000000000000000000000000000008152600401610f369061266f565b60405180910390fd5b600073ffffffffffffffffffffffffffffffffffffffff168273ffffffffffffffffffffffffffffffffffffffff161415610faf576040517f08c379a0000000000000000000000000000000000000000000000000000000008152600401610fa690612701565b60405180910390fd5b610fba8383836116d3565b610fc5600082610d7b565b6001600360008573ffffffffffffffffffffffffffffffffffffffff1673ffffffffffffffffffffffffffffffffffffffff16815260200190815260200160002060008282546110159190612721565b925050819055506001600360008473ffffffffffffffffffffffffffffffffffffffff1673ffffffffffffffffffffffffffffffffffffffff168152602001908152602001600020600082825461106c9190612755565b92505081905550816002600083815260200190815260200160002060006101000a81548173ffffffffffffffffffffffffffffffffffffffff021916908373ffffffffffffffffffffffffffffffffffffffff160217905550808273ffffffffffffffffffffffffffffffffffffffff168473ffffffffffffffffffffffffffffffffffffffff167fddf252ad1be2c89b69c2b068fc378daa952ba7f163c4a11628f55a4df523b3ef60405160405180910390a461112b8383836116d8565b505050565b600081600001549050919050565b60008073ffffffffffffffffffffffffffffffffffffffff166002600084815260200190815260200160002060009054906101000a900473ffffffffffffffffffffffffffffffffffffffff1673ffffffffffffffffffffffffffffffffffffffff1614159050919050565b6111b2610d73565b73ffffffffffffffffffffffffffffffffffffffff166111d061097e565b73ffffffffffffffffffffffffffffffffffffffff1614611226576040517f08c379a000000000000000000000000000000000000000000000000000000000815260040161121d906127f7565b60405180910390fd5b565b6000600660009054906101000a900473ffffffffffffffffffffffffffffffffffffffff16905081600660006101000a81548173ffffffffffffffffffffffffffffffffffffffff021916908373ffffffffffffffffffffffffffffffffffffffff1602179055508173ffffffffffffffffffffffffffffffffffffffff168173ffffffffffffffffffffffffffffffffffffffff167f8be0079c531659141344cd1fd0a4f28419497f9722a3daafe3b4186f6b6457e060405160405180910390a35050565b8173ffffffffffffffffffffffffffffffffffffffff168373ffffffffffffffffffffffffffffffffffffffff16141561135d576040517f08c379a000000000000000000000000000000000000000000000000000000000815260040161135490612863565b60405180910390fd5b80600560008573ffffffffffffffffffffffffffffffffffffffff1673ffffffffffffffffffffffffffffffffffffffff16815260200190815260200160002060008473ffffffffffffffffffffffffffffffffffffffff1673ffffffffffffffffffffffffffffffffffffffff16815260200190815260200160002060006101000a81548160ff0219169083151502179055508173ffffffffffffffffffffffffffffffffffffffff168373ffffffffffffffffffffffffffffffffffffffff167f17307eab39ab6107e8899845ad3d59bd9653f200f220920489ca2b5937696c318360405161144e9190611a0f565b60405180910390a3505050565b611466848484610ec9565b611472848484846116dd565b6114b1576040517f08c379a00000000000000000000000000000000000000000000000000000000081526004016114a8906128f5565b60405180910390fd5b50505050565b600073ffffffffffffffffffffffffffffffffffffffff168273ffffffffffffffffffffffffffffffffffffffff161415611527576040517f08c379a000000000000000000000000000000000000000000000000000000000815260040161151e90612961565b60405180910390fd5b6115308161113e565b15611570576040517f08c379a0000000000000000000000000000000000000000000000000000000008152600401611567906129cd565b60405180910390fd5b61157c600083836116d3565b6001600360008473ffffffffffffffffffffffffffffffffffffffff1673ffffffffffffffffffffffffffffffffffffffff16815260200190815260200160002060008282546115cc9190612755565b92505081905550816002600083815260200190815260200160002060006101000a81548173ffffffffffffffffffffffffffffffffffffffff021916908373ffffffffffffffffffffffffffffffffffffffff160217905550808273ffffffffffffffffffffffffffffffffffffffff16600073ffffffffffffffffffffffffffffffffffffffff167fddf252ad1be2c89b69c2b068fc378daa952ba7f163c4a11628f55a4df523b3ef60405160405180910390a461168d600083836116d8565b5050565b806008600084815260200190815260200160002090805190602001906116b89291906118b8565b505050565b6001816000016000828254019250508190555050565b505050565b505050565b60006116fe8473ffffffffffffffffffffffffffffffffffffffff16611874565b15611867578373ffffffffffffffffffffffffffffffffffffffff1663150b7a02611727610d73565b8786866040518563ffffffff1660e01b81526004016117499493929190612a42565b602060405180830381600087803b15801561176357600080fd5b505af192505050801561179457506040513d601f19601f820116820180604052508101906117919190612aa3565b60015b611817573d80600081146117c4576040519150601f19603f3d011682016040523d82523d6000602084013e6117c9565b606091505b5060008151141561180f576040517f08c379a0000000000000000000000000000000000000000000000000000000008152600401611806906128f5565b60405180910390fd5b805181602001fd5b63150b7a0260e01b7bffffffffffffffffffffffffffffffffffffffffffffffffffffffff1916817bffffffffffffffffffffffffffffffffffffffffffffffffffffffff19161491505061186c565b600190505b949350505050565b6000808273ffffffffffffffffffffffffffffffffffffffff163b119050919050565b60405180606001604052806000815260200160608152602001606081525090565b8280546118c4906121de565b90600052602060002090601f0160209004810192826118e6576000855561192d565b82601f106118ff57805160ff191683800117855561192d565b8280016001018555821561192d579182015b8281111561192c578251825591602001919060010190611911565b5b50905061193a919061193e565b5090565b5b8082111561195757600081600090555060010161193f565b5090565b6000604051905090565b600080fd5b600080fd5b60007fffffffff0000000000000000000000000000000000000000000000000000000082169050919050565b6119a48161196f565b81146119af57600080fd5b50565b6000813590506119c18161199b565b92915050565b6000602082840312156119dd576119dc611965565b5b60006119eb848285016119b2565b91505092915050565b60008115159050919050565b611a09816119f4565b82525050565b6000602082019050611a246000830184611a00565b92915050565b600081519050919050565b600082825260208201905092915050565b60005b83811015611a64578082015181840152602081019050611a49565b83811115611a73576000848401525b50505050565b6000601f19601f8301169050919050565b6000611a9582611a2a565b611a9f8185611a35565b9350611aaf818560208601611a46565b611ab881611a79565b840191505092915050565b60006020820190508181036000830152611add8184611a8a565b905092915050565b6000819050919050565b611af881611ae5565b8114611b0357600080fd5b50565b600081359050611b1581611aef565b92915050565b600060208284031215611b3157611b30611965565b5b6000611b3f84828501611b06565b91505092915050565b600073ffffffffffffffffffffffffffffffffffffffff82169050919050565b6000611b7382611b48565b9050919050565b611b8381611b68565b82525050565b6000602082019050611b9e6000830184611b7a565b92915050565b611bad81611b68565b8114611bb857600080fd5b50565b600081359050611bca81611ba4565b92915050565b60008060408385031215611be757611be6611965565b5b6000611bf585828601611bbb565b9250506020611c0685828601611b06565b9150509250929050565b600080600060608486031215611c2957611c28611965565b5b6000611c3786828701611bbb565b9350506020611c4886828701611bbb565b9250506040611c5986828701611b06565b9150509250925092565b600081519050919050565b600082825260208201905092915050565b6000819050602082019050919050565b611c9881611ae5565b82525050565b600082825260208201905092915050565b6000611cba82611a2a565b611cc48185611c9e565b9350611cd4818560208601611a46565b611cdd81611a79565b840191505092915050565b6000606083016000830151611d006000860182611c8f565b5060208301518482036020860152611d188282611caf565b91505060408301518482036040860152611d328282611caf565b9150508091505092915050565b6000611d4b8383611ce8565b905092915050565b6000602082019050919050565b6000611d6b82611c63565b611d758185611c6e565b935083602082028501611d8785611c7f565b8060005b85811015611dc35784840389528151611da48582611d3f565b9450611daf83611d53565b925060208a01995050600181019050611d8b565b50829750879550505050505092915050565b60006020820190508181036000830152611def8184611d60565b905092915050565b600060208284031215611e0d57611e0c611965565b5b6000611e1b84828501611bbb565b91505092915050565b611e2d81611ae5565b82525050565b6000602082019050611e486000830184611e24565b92915050565b611e57816119f4565b8114611e6257600080fd5b50565b600081359050611e7481611e4e565b92915050565b60008060408385031215611e9157611e90611965565b5b6000611e9f85828601611bbb565b9250506020611eb085828601611e65565b9150509250929050565b600080fd5b600080fd5b7f4e487b7100000000000000000000000000000000000000000000000000000000600052604160045260246000fd5b611efc82611a79565b810181811067ffffffffffffffff82111715611f1b57611f1a611ec4565b5b80604052505050565b6000611f2e61195b565b9050611f3a8282611ef3565b919050565b600067ffffffffffffffff821115611f5a57611f59611ec4565b5b611f6382611a79565b9050602081019050919050565b82818337600083830152505050565b6000611f92611f8d84611f3f565b611f24565b905082815260208101848484011115611fae57611fad611ebf565b5b611fb9848285611f70565b509392505050565b600082601f830112611fd657611fd5611eba565b5b8135611fe6848260208601611f7f565b91505092915050565b6000806000806080858703121561200957612008611965565b5b600061201787828801611bbb565b945050602061202887828801611bbb565b935050604061203987828801611b06565b925050606085013567ffffffffffffffff81111561205a5761205961196a565b5b61206687828801611fc1565b91505092959194509250565b600067ffffffffffffffff82111561208d5761208c611ec4565b5b61209682611a79565b9050602081019050919050565b60006120b66120b184612072565b611f24565b9050828152602081018484840111156120d2576120d1611ebf565b5b6120dd848285611f70565b509392505050565b600082601f8301126120fa576120f9611eba565b5b813561210a8482602086016120a3565b91505092915050565b6000806040838503121561212a57612129611965565b5b600061213885828601611bbb565b925050602083013567ffffffffffffffff8111156121595761215861196a565b5b612165858286016120e5565b9150509250929050565b6000806040838503121561218657612185611965565b5b600061219485828601611bbb565b92505060206121a585828601611bbb565b9150509250929050565b7f4e487b7100000000000000000000000000000000000000000000000000000000600052602260045260246000fd5b600060028204905060018216806121f657607f821691505b6020821081141561220a576122096121af565b5b50919050565b7f4552433732313a20617070726f76616c20746f2063757272656e74206f776e6560008201527f7200000000000000000000000000000000000000000000000000000000000000602082015250565b600061226c602183611a35565b915061227782612210565b604082019050919050565b6000602082019050818103600083015261229b8161225f565b9050919050565b7f4552433732313a20617070726f76652063616c6c6572206973206e6f7420746f60008201527f6b656e206f776e6572206e6f7220617070726f76656420666f7220616c6c0000602082015250565b60006122fe603e83611a35565b9150612309826122a2565b604082019050919050565b6000602082019050818103600083015261232d816122f1565b9050919050565b7f4552433732313a2063616c6c6572206973206e6f7420746f6b656e206f776e6560008201527f72206e6f7220617070726f766564000000000000000000000000000000000000602082015250565b6000612390602e83611a35565b915061239b82612334565b604082019050919050565b600060208201905081810360008301526123bf81612383565b9050919050565b7f4e487b7100000000000000000000000000000000000000000000000000000000600052603260045260246000fd5b7f4e487b7100000000000000000000000000000000000000000000000000000000600052601160045260246000fd5b600061242f82611ae5565b91507fffffffffffffffffffffffffffffffffffffffffffffffffffffffffffffffff821415612462576124616123f5565b5b600182019050919050565b7f4552433732313a20696e76616c696420746f6b656e2049440000000000000000600082015250565b60006124a3601883611a35565b91506124ae8261246d565b602082019050919050565b600060208201905081810360008301526124d281612496565b9050919050565b7f4552433732313a2061646472657373207a65726f206973206e6f74206120766160008201527f6c6964206f776e65720000000000000000000000000000000000000000000000602082015250565b6000612535602983611a35565b9150612540826124d9565b604082019050919050565b6000602082019050818103600083015261256481612528565b9050919050565b7f4f776e61626c653a206e6577206f776e657220697320746865207a65726f206160008201527f6464726573730000000000000000000000000000000000000000000000000000602082015250565b60006125c7602683611a35565b91506125d28261256b565b604082019050919050565b600060208201905081810360008301526125f6816125ba565b9050919050565b7f4552433732313a207472616e736665722066726f6d20696e636f72726563742060008201527f6f776e6572000000000000000000000000000000000000000000000000000000602082015250565b6000612659602583611a35565b9150612664826125fd565b604082019050919050565b600060208201905081810360008301526126888161264c565b9050919050565b7f4552433732313a207472616e7366657220746f20746865207a65726f2061646460008201527f7265737300000000000000000000000000000000000000000000000000000000602082015250565b60006126eb602483611a35565b91506126f68261268f565b604082019050919050565b6000602082019050818103600083015261271a816126de565b9050919050565b600061272c82611ae5565b915061273783611ae5565b92508282101561274a576127496123f5565b5b828203905092915050565b600061276082611ae5565b915061276b83611ae5565b9250827fffffffffffffffffffffffffffffffffffffffffffffffffffffffffffffffff038211156127a05761279f6123f5565b5b828201905092915050565b7f4f776e61626c653a2063616c6c6572206973206e6f7420746865206f776e6572600082015250565b60006127e1602083611a35565b91506127ec826127ab565b602082019050919050565b60006020820190508181036000830152612810816127d4565b9050919050565b7f4552433732313a20617070726f766520746f2063616c6c657200000000000000600082015250565b600061284d601983611a35565b915061285882612817565b602082019050919050565b6000602082019050818103600083015261287c81612840565b9050919050565b7f4552433732313a207472616e7366657220746f206e6f6e20455243373231526560008201527f63656976657220696d706c656d656e7465720000000000000000000000000000602082015250565b60006128df603283611a35565b91506128ea82612883565b604082019050919050565b6000602082019050818103600083015261290e816128d2565b9050919050565b7f4552433732313a206d696e7420746f20746865207a65726f2061646472657373600082015250565b600061294b602083611a35565b915061295682612915565b602082019050919050565b6000602082019050818103600083015261297a8161293e565b9050919050565b7f4552433732313a20746f6b656e20616c7265616479206d696e74656400000000600082015250565b60006129b7601c83611a35565b91506129c282612981565b602082019050919050565b600060208201905081810360008301526129e6816129aa565b9050919050565b600081519050919050565b600082825260208201905092915050565b6000612a14826129ed565b612a1e81856129f8565b9350612a2e818560208601611a46565b612a3781611a79565b840191505092915050565b6000608082019050612a576000830187611b7a565b612a646020830186611b7a565b612a716040830185611e24565b8181036060830152612a838184612a09565b905095945050505050565b600081519050612a9d8161199b565b92915050565b600060208284031215612ab957612ab8611965565b5b6000612ac784828501612a8e565b9150509291505056fea26469706673582212206585400cc3bb5208161bf5a6af8f5284edf622f3a9152948caf01309cf70161a64736f6c63430008090033",
  "linkReferences": {},
  "deployedLinkReferences": {}
}